{
  "contractName": "SimpleNFT",
  "abi": [
    {
      "inputs": [],
      "stateMutability": "nonpayable",
      "type": "constructor"
    },
    {
      "anonymous": false,
      "inputs": [
        {
          "indexed": true,
          "internalType": "address",
          "name": "owner",
          "type": "address"
        },
        {
          "indexed": true,
          "internalType": "address",
          "name": "approved",
          "type": "address"
        },
        {
          "indexed": true,
          "internalType": "uint256",
          "name": "tokenId",
          "type": "uint256"
        }
      ],
      "name": "Approval",
      "type": "event"
    },
    {
      "anonymous": false,
      "inputs": [
        {
          "indexed": true,
          "internalType": "address",
          "name": "owner",
          "type": "address"
        },
        {
          "indexed": true,
          "internalType": "address",
          "name": "operator",
          "type": "address"
        },
        {
          "indexed": false,
          "internalType": "bool",
          "name": "approved",
          "type": "bool"
        }
      ],
      "name": "ApprovalForAll",
      "type": "event"
    },
    {
      "anonymous": false,
      "inputs": [
        {
          "indexed": true,
          "internalType": "address",
          "name": "from",
          "type": "address"
        },
        {
          "indexed": true,
          "internalType": "address",
          "name": "to",
          "type": "address"
        },
        {
          "indexed": true,
          "internalType": "uint256",
          "name": "tokenId",
          "type": "uint256"
        }
      ],
      "name": "Transfer",
      "type": "event"
    },
    {
      "inputs": [
        {
          "internalType": "address",
          "name": "to",
          "type": "address"
        },
        {
          "internalType": "uint256",
          "name": "tokenId",
          "type": "uint256"
        }
      ],
      "name": "approve",
      "outputs": [],
      "stateMutability": "nonpayable",
      "type": "function"
    },
    {
      "inputs": [
        {
          "internalType": "address",
          "name": "owner",
          "type": "address"
        }
      ],
      "name": "balanceOf",
      "outputs": [
        {
          "internalType": "uint256",
          "name": "",
          "type": "uint256"
        }
      ],
      "stateMutability": "view",
      "type": "function",
      "constant": true
    },
    {
      "inputs": [
        {
          "internalType": "uint256",
          "name": "tokenId",
          "type": "uint256"
        }
      ],
      "name": "getApproved",
      "outputs": [
        {
          "internalType": "address",
          "name": "",
          "type": "address"
        }
      ],
      "stateMutability": "view",
      "type": "function",
      "constant": true
    },
    {
      "inputs": [
        {
          "internalType": "address",
          "name": "owner",
          "type": "address"
        },
        {
          "internalType": "address",
          "name": "operator",
          "type": "address"
        }
      ],
      "name": "isApprovedForAll",
      "outputs": [
        {
          "internalType": "bool",
          "name": "",
          "type": "bool"
        }
      ],
      "stateMutability": "view",
      "type": "function",
      "constant": true
    },
    {
      "inputs": [],
      "name": "name",
      "outputs": [
        {
          "internalType": "string",
          "name": "",
          "type": "string"
        }
      ],
      "stateMutability": "view",
      "type": "function",
      "constant": true
    },
    {
      "inputs": [
        {
          "internalType": "uint256",
          "name": "tokenId",
          "type": "uint256"
        }
      ],
      "name": "ownerOf",
      "outputs": [
        {
          "internalType": "address",
          "name": "",
          "type": "address"
        }
      ],
      "stateMutability": "view",
      "type": "function",
      "constant": true
    },
    {
      "inputs": [
        {
          "internalType": "address",
          "name": "from",
          "type": "address"
        },
        {
          "internalType": "address",
          "name": "to",
          "type": "address"
        },
        {
          "internalType": "uint256",
          "name": "tokenId",
          "type": "uint256"
        }
      ],
      "name": "safeTransferFrom",
      "outputs": [],
      "stateMutability": "nonpayable",
      "type": "function"
    },
    {
      "inputs": [
        {
          "internalType": "address",
          "name": "from",
          "type": "address"
        },
        {
          "internalType": "address",
          "name": "to",
          "type": "address"
        },
        {
          "internalType": "uint256",
          "name": "tokenId",
          "type": "uint256"
        },
        {
          "internalType": "bytes",
          "name": "data",
          "type": "bytes"
        }
      ],
      "name": "safeTransferFrom",
      "outputs": [],
      "stateMutability": "nonpayable",
      "type": "function"
    },
    {
      "inputs": [
        {
          "internalType": "address",
          "name": "operator",
          "type": "address"
        },
        {
          "internalType": "bool",
          "name": "approved",
          "type": "bool"
        }
      ],
      "name": "setApprovalForAll",
      "outputs": [],
      "stateMutability": "nonpayable",
      "type": "function"
    },
    {
      "inputs": [
        {
          "internalType": "bytes4",
          "name": "interfaceId",
          "type": "bytes4"
        }
      ],
      "name": "supportsInterface",
      "outputs": [
        {
          "internalType": "bool",
          "name": "",
          "type": "bool"
        }
      ],
      "stateMutability": "view",
      "type": "function",
      "constant": true
    },
    {
      "inputs": [],
      "name": "symbol",
      "outputs": [
        {
          "internalType": "string",
          "name": "",
          "type": "string"
        }
      ],
      "stateMutability": "view",
      "type": "function",
      "constant": true
    },
    {
      "inputs": [
        {
          "internalType": "uint256",
          "name": "tokenId",
          "type": "uint256"
        }
      ],
      "name": "tokenURI",
      "outputs": [
        {
          "internalType": "string",
          "name": "",
          "type": "string"
        }
      ],
      "stateMutability": "view",
      "type": "function",
      "constant": true
    },
    {
      "inputs": [
        {
          "internalType": "address",
          "name": "from",
          "type": "address"
        },
        {
          "internalType": "address",
          "name": "to",
          "type": "address"
        },
        {
          "internalType": "uint256",
          "name": "tokenId",
          "type": "uint256"
        }
      ],
      "name": "transferFrom",
      "outputs": [],
      "stateMutability": "nonpayable",
      "type": "function"
    },
    {
      "inputs": [
        {
          "internalType": "uint256",
          "name": "tokenId",
          "type": "uint256"
        }
      ],
      "name": "mint",
      "outputs": [],
      "stateMutability": "nonpayable",
      "type": "function"
    }
  ],
  "bytecode": "0x60806040523480156200001157600080fd5b506040518060400160405280600881526020017f4d6f636b204e46540000000000000000000000000000000000000000000000008152506040518060400160405280600481526020017f4d4e465400000000000000000000000000000000000000000000000000000000815250816000908051906020019062000096929190620000b8565b508060019080519060200190620000af929190620000b8565b505050620001cc565b828054620000c69062000197565b90600052602060002090601f016020900481019282620000ea576000855562000136565b82601f106200010557805160ff191683800117855562000136565b8280016001018555821562000136579182015b828111156200013557825182559160200191906001019062000118565b5b50905062000145919062000149565b5090565b5b80821115620001645760008160009055506001016200014a565b5090565b7f4e487b7100000000000000000000000000000000000000000000000000000000600052602260045260246000fd5b60006002820490506001821680620001b057607f821691505b602082108103620001c657620001c562000168565b5b50919050565b61247380620001dc6000396000f3fe608060405234801561001057600080fd5b50600436106100ea5760003560e01c806370a082311161008c578063a22cb46511610066578063a22cb4651461025b578063b88d4fde14610277578063c87b56dd14610293578063e985e9c5146102c3576100ea565b806370a08231146101f157806395d89b4114610221578063a0712d681461023f576100ea565b8063095ea7b3116100c8578063095ea7b31461016d57806323b872dd1461018957806342842e0e146101a55780636352211e146101c1576100ea565b806301ffc9a7146100ef57806306fdde031461011f578063081812fc1461013d575b600080fd5b610109600480360381019061010491906115d4565b6102f3565b604051610116919061161c565b60405180910390f35b6101276103d5565b60405161013491906116d0565b60405180910390f35b61015760048036038101906101529190611728565b610467565b6040516101649190611796565b60405180910390f35b610187600480360381019061018291906117dd565b6104ad565b005b6101a3600480360381019061019e919061181d565b6105c4565b005b6101bf60048036038101906101ba919061181d565b610624565b005b6101db60048036038101906101d69190611728565b610644565b6040516101e89190611796565b60405180910390f35b61020b60048036038101906102069190611870565b6106f5565b60405161021891906118ac565b60405180910390f35b6102296107ac565b60405161023691906116d0565b60405180910390f35b61025960048036038101906102549190611728565b61083e565b005b610275600480360381019061027091906118f3565b61084b565b005b610291600480360381019061028c9190611a68565b610861565b005b6102ad60048036038101906102a89190611728565b6108c3565b6040516102ba91906116d0565b60405180910390f35b6102dd60048036038101906102d89190611aeb565b61092b565b6040516102ea919061161c565b60405180910390f35b60007f80ac58cd000000000000000000000000000000000000000000000000000000007bffffffffffffffffffffffffffffffffffffffffffffffffffffffff1916827bffffffffffffffffffffffffffffffffffffffffffffffffffffffff191614806103be57507f5b5e139f000000000000000000000000000000000000000000000000000000007bffffffffffffffffffffffffffffffffffffffffffffffffffffffff1916827bffffffffffffffffffffffffffffffffffffffffffffffffffffffff1916145b806103ce57506103cd826109bf565b5b9050919050565b6060600080546103e490611b5a565b80601f016020809104026020016040519081016040528092919081815260200182805461041090611b5a565b801561045d5780601f106104325761010080835404028352916020019161045d565b820191906000526020600020905b81548152906001019060200180831161044057829003601f168201915b5050505050905090565b600061047282610a29565b6004600083815260200190815260200160002060009054906101000a900473ffffffffffffffffffffffffffffffffffffffff169050919050565b60006104b882610644565b90508073ffffffffffffffffffffffffffffffffffffffff168373ffffffffffffffffffffffffffffffffffffffff1603610528576040517f08c379a000000000000000000000000000000000000000000000000000000000815260040161051f90611bfd565b60405180910390fd5b8073ffffffffffffffffffffffffffffffffffffffff16610547610a74565b73ffffffffffffffffffffffffffffffffffffffff161480610576575061057581610570610a74565b61092b565b5b6105b5576040517f08c379a00000000000000000000000000000000000000000000000000000000081526004016105ac90611c8f565b60405180910390fd5b6105bf8383610a7c565b505050565b6105d56105cf610a74565b82610b35565b610614576040517f08c379a000000000000000000000000000000000000000000000000000000000815260040161060b90611d21565b60405180910390fd5b61061f838383610bca565b505050565b61063f83838360405180602001604052806000815250610861565b505050565b6000806002600084815260200190815260200160002060009054906101000a900473ffffffffffffffffffffffffffffffffffffffff169050600073ffffffffffffffffffffffffffffffffffffffff168173ffffffffffffffffffffffffffffffffffffffff16036106ec576040517f08c379a00000000000000000000000000000000000000000000000000000000081526004016106e390611d8d565b60405180910390fd5b80915050919050565b60008073ffffffffffffffffffffffffffffffffffffffff168273ffffffffffffffffffffffffffffffffffffffff1603610765576040517f08c379a000000000000000000000000000000000000000000000000000000000815260040161075c90611e1f565b60405180910390fd5b600360008373ffffffffffffffffffffffffffffffffffffffff1673ffffffffffffffffffffffffffffffffffffffff168152602001908152602001600020549050919050565b6060600180546107bb90611b5a565b80601f01602080910402602001604051908101604052809291908181526020018280546107e790611b5a565b80156108345780601f1061080957610100808354040283529160200191610834565b820191906000526020600020905b81548152906001019060200180831161081757829003601f168201915b5050505050905090565b6108483382610e30565b50565b61085d610856610a74565b8383611009565b5050565b61087261086c610a74565b83610b35565b6108b1576040517f08c379a00000000000000000000000000000000000000000000000000000000081526004016108a890611d21565b60405180910390fd5b6108bd84848484611175565b50505050565b60606108ce82610a29565b60006108d86111d1565b905060008151116108f85760405180602001604052806000815250610923565b80610902846111e8565b604051602001610913929190611e7b565b6040516020818303038152906040525b915050919050565b6000600560008473ffffffffffffffffffffffffffffffffffffffff1673ffffffffffffffffffffffffffffffffffffffff16815260200190815260200160002060008373ffffffffffffffffffffffffffffffffffffffff1673ffffffffffffffffffffffffffffffffffffffff16815260200190815260200160002060009054906101000a900460ff16905092915050565b60007f01ffc9a7000000000000000000000000000000000000000000000000000000007bffffffffffffffffffffffffffffffffffffffffffffffffffffffff1916827bffffffffffffffffffffffffffffffffffffffffffffffffffffffff1916149050919050565b610a3281611348565b610a71576040517f08c379a0000000000000000000000000000000000000000000000000000000008152600401610a6890611d8d565b60405180910390fd5b50565b600033905090565b816004600083815260200190815260200160002060006101000a81548173ffffffffffffffffffffffffffffffffffffffff021916908373ffffffffffffffffffffffffffffffffffffffff160217905550808273ffffffffffffffffffffffffffffffffffffffff16610aef83610644565b73ffffffffffffffffffffffffffffffffffffffff167f8c5be1e5ebec7d5bd14f71427d1e84f3dd0314c0f7b2291e5b200ac8c7c3b92560405160405180910390a45050565b600080610b4183610644565b90508073ffffffffffffffffffffffffffffffffffffffff168473ffffffffffffffffffffffffffffffffffffffff161480610b835750610b82818561092b565b5b80610bc157508373ffffffffffffffffffffffffffffffffffffffff16610ba984610467565b73ffffffffffffffffffffffffffffffffffffffff16145b91505092915050565b8273ffffffffffffffffffffffffffffffffffffffff16610bea82610644565b73ffffffffffffffffffffffffffffffffffffffff1614610c40576040517f08c379a0000000000000000000000000000000000000000000000000000000008152600401610c3790611f11565b60405180910390fd5b600073ffffffffffffffffffffffffffffffffffffffff168273ffffffffffffffffffffffffffffffffffffffff1603610caf576040517f08c379a0000000000000000000000000000000000000000000000000000000008152600401610ca690611fa3565b60405180910390fd5b610cba8383836113b4565b610cc5600082610a7c565b6001600360008573ffffffffffffffffffffffffffffffffffffffff1673ffffffffffffffffffffffffffffffffffffffff1681526020019081526020016000206000828254610d159190611ff2565b925050819055506001600360008473ffffffffffffffffffffffffffffffffffffffff1673ffffffffffffffffffffffffffffffffffffffff1681526020019081526020016000206000828254610d6c9190612026565b92505081905550816002600083815260200190815260200160002060006101000a81548173ffffffffffffffffffffffffffffffffffffffff021916908373ffffffffffffffffffffffffffffffffffffffff160217905550808273ffffffffffffffffffffffffffffffffffffffff168473ffffffffffffffffffffffffffffffffffffffff167fddf252ad1be2c89b69c2b068fc378daa952ba7f163c4a11628f55a4df523b3ef60405160405180910390a4610e2b8383836113b9565b505050565b600073ffffffffffffffffffffffffffffffffffffffff168273ffffffffffffffffffffffffffffffffffffffff1603610e9f576040517f08c379a0000000000000000000000000000000000000000000000000000000008152600401610e96906120c8565b60405180910390fd5b610ea881611348565b15610ee8576040517f08c379a0000000000000000000000000000000000000000000000000000000008152600401610edf90612134565b60405180910390fd5b610ef4600083836113b4565b6001600360008473ffffffffffffffffffffffffffffffffffffffff1673ffffffffffffffffffffffffffffffffffffffff1681526020019081526020016000206000828254610f449190612026565b92505081905550816002600083815260200190815260200160002060006101000a81548173ffffffffffffffffffffffffffffffffffffffff021916908373ffffffffffffffffffffffffffffffffffffffff160217905550808273ffffffffffffffffffffffffffffffffffffffff16600073ffffffffffffffffffffffffffffffffffffffff167fddf252ad1be2c89b69c2b068fc378daa952ba7f163c4a11628f55a4df523b3ef60405160405180910390a4611005600083836113b9565b5050565b8173ffffffffffffffffffffffffffffffffffffffff168373ffffffffffffffffffffffffffffffffffffffff1603611077576040517f08c379a000000000000000000000000000000000000000000000000000000000815260040161106e906121a0565b60405180910390fd5b80600560008573ffffffffffffffffffffffffffffffffffffffff1673ffffffffffffffffffffffffffffffffffffffff16815260200190815260200160002060008473ffffffffffffffffffffffffffffffffffffffff1673ffffffffffffffffffffffffffffffffffffffff16815260200190815260200160002060006101000a81548160ff0219169083151502179055508173ffffffffffffffffffffffffffffffffffffffff168373ffffffffffffffffffffffffffffffffffffffff167f17307eab39ab6107e8899845ad3d59bd9653f200f220920489ca2b5937696c3183604051611168919061161c565b60405180910390a3505050565b611180848484610bca565b61118c848484846113be565b6111cb576040517f08c379a00000000000000000000000000000000000000000000000000000000081526004016111c290612232565b60405180910390fd5b50505050565b606060405180602001604052806000815250905090565b60606000820361122f576040518060400160405280600181526020017f30000000000000000000000000000000000000000000000000000000000000008152509050611343565b600082905060005b6000821461126157808061124a90612252565b915050600a8261125a91906122c9565b9150611237565b60008167ffffffffffffffff81111561127d5761127c61193d565b5b6040519080825280601f01601f1916602001820160405280156112af5781602001600182028036833780820191505090505b5090505b6000851461133c576001826112c89190611ff2565b9150600a856112d791906122fa565b60306112e39190612026565b60f81b8183815181106112f9576112f861232b565b5b60200101907effffffffffffffffffffffffffffffffffffffffffffffffffffffffffffff1916908160001a905350600a8561133591906122c9565b94506112b3565b8093505050505b919050565b60008073ffffffffffffffffffffffffffffffffffffffff166002600084815260200190815260200160002060009054906101000a900473ffffffffffffffffffffffffffffffffffffffff1673ffffffffffffffffffffffffffffffffffffffff1614159050919050565b505050565b505050565b60006113df8473ffffffffffffffffffffffffffffffffffffffff16611545565b15611538578373ffffffffffffffffffffffffffffffffffffffff1663150b7a02611408610a74565b8786866040518563ffffffff1660e01b815260040161142a94939291906123af565b6020604051808303816000875af192505050801561146657506040513d601f19601f820116820180604052508101906114639190612410565b60015b6114e8573d8060008114611496576040519150601f19603f3d011682016040523d82523d6000602084013e61149b565b606091505b5060008151036114e0576040517f08c379a00000000000000000000000000000000000000000000000000000000081526004016114d790612232565b60405180910390fd5b805181602001fd5b63150b7a0260e01b7bffffffffffffffffffffffffffffffffffffffffffffffffffffffff1916817bffffffffffffffffffffffffffffffffffffffffffffffffffffffff19161491505061153d565b600190505b949350505050565b6000808273ffffffffffffffffffffffffffffffffffffffff163b119050919050565b6000604051905090565b600080fd5b600080fd5b60007fffffffff0000000000000000000000000000000000000000000000000000000082169050919050565b6115b18161157c565b81146115bc57600080fd5b50565b6000813590506115ce816115a8565b92915050565b6000602082840312156115ea576115e9611572565b5b60006115f8848285016115bf565b91505092915050565b60008115159050919050565b61161681611601565b82525050565b6000602082019050611631600083018461160d565b92915050565b600081519050919050565b600082825260208201905092915050565b60005b83811015611671578082015181840152602081019050611656565b83811115611680576000848401525b50505050565b6000601f19601f8301169050919050565b60006116a282611637565b6116ac8185611642565b93506116bc818560208601611653565b6116c581611686565b840191505092915050565b600060208201905081810360008301526116ea8184611697565b905092915050565b6000819050919050565b611705816116f2565b811461171057600080fd5b50565b600081359050611722816116fc565b92915050565b60006020828403121561173e5761173d611572565b5b600061174c84828501611713565b91505092915050565b600073ffffffffffffffffffffffffffffffffffffffff82169050919050565b600061178082611755565b9050919050565b61179081611775565b82525050565b60006020820190506117ab6000830184611787565b92915050565b6117ba81611775565b81146117c557600080fd5b50565b6000813590506117d7816117b1565b92915050565b600080604083850312156117f4576117f3611572565b5b6000611802858286016117c8565b925050602061181385828601611713565b9150509250929050565b60008060006060848603121561183657611835611572565b5b6000611844868287016117c8565b9350506020611855868287016117c8565b925050604061186686828701611713565b9150509250925092565b60006020828403121561188657611885611572565b5b6000611894848285016117c8565b91505092915050565b6118a6816116f2565b82525050565b60006020820190506118c1600083018461189d565b92915050565b6118d081611601565b81146118db57600080fd5b50565b6000813590506118ed816118c7565b92915050565b6000806040838503121561190a57611909611572565b5b6000611918858286016117c8565b9250506020611929858286016118de565b9150509250929050565b600080fd5b600080fd5b7f4e487b7100000000000000000000000000000000000000000000000000000000600052604160045260246000fd5b61197582611686565b810181811067ffffffffffffffff821117156119945761199361193d565b5b80604052505050565b60006119a7611568565b90506119b3828261196c565b919050565b600067ffffffffffffffff8211156119d3576119d261193d565b5b6119dc82611686565b9050602081019050919050565b82818337600083830152505050565b6000611a0b611a06846119b8565b61199d565b905082815260208101848484011115611a2757611a26611938565b5b611a328482856119e9565b509392505050565b600082601f830112611a4f57611a4e611933565b5b8135611a5f8482602086016119f8565b91505092915050565b60008060008060808587031215611a8257611a81611572565b5b6000611a90878288016117c8565b9450506020611aa1878288016117c8565b9350506040611ab287828801611713565b925050606085013567ffffffffffffffff811115611ad357611ad2611577565b5b611adf87828801611a3a565b91505092959194509250565b60008060408385031215611b0257611b01611572565b5b6000611b10858286016117c8565b9250506020611b21858286016117c8565b9150509250929050565b7f4e487b7100000000000000000000000000000000000000000000000000000000600052602260045260246000fd5b60006002820490506001821680611b7257607f821691505b602082108103611b8557611b84611b2b565b5b50919050565b7f4552433732313a20617070726f76616c20746f2063757272656e74206f776e6560008201527f7200000000000000000000000000000000000000000000000000000000000000602082015250565b6000611be7602183611642565b9150611bf282611b8b565b604082019050919050565b60006020820190508181036000830152611c1681611bda565b9050919050565b7f4552433732313a20617070726f76652063616c6c6572206973206e6f7420746f60008201527f6b656e206f776e6572206e6f7220617070726f76656420666f7220616c6c0000602082015250565b6000611c79603e83611642565b9150611c8482611c1d565b604082019050919050565b60006020820190508181036000830152611ca881611c6c565b9050919050565b7f4552433732313a2063616c6c6572206973206e6f7420746f6b656e206f776e6560008201527f72206e6f7220617070726f766564000000000000000000000000000000000000602082015250565b6000611d0b602e83611642565b9150611d1682611caf565b604082019050919050565b60006020820190508181036000830152611d3a81611cfe565b9050919050565b7f4552433732313a20696e76616c696420746f6b656e2049440000000000000000600082015250565b6000611d77601883611642565b9150611d8282611d41565b602082019050919050565b60006020820190508181036000830152611da681611d6a565b9050919050565b7f4552433732313a2061646472657373207a65726f206973206e6f74206120766160008201527f6c6964206f776e65720000000000000000000000000000000000000000000000602082015250565b6000611e09602983611642565b9150611e1482611dad565b604082019050919050565b60006020820190508181036000830152611e3881611dfc565b9050919050565b600081905092915050565b6000611e5582611637565b611e5f8185611e3f565b9350611e6f818560208601611653565b80840191505092915050565b6000611e878285611e4a565b9150611e938284611e4a565b91508190509392505050565b7f4552433732313a207472616e736665722066726f6d20696e636f72726563742060008201527f6f776e6572000000000000000000000000000000000000000000000000000000602082015250565b6000611efb602583611642565b9150611f0682611e9f565b604082019050919050565b60006020820190508181036000830152611f2a81611eee565b9050919050565b7f4552433732313a207472616e7366657220746f20746865207a65726f2061646460008201527f7265737300000000000000000000000000000000000000000000000000000000602082015250565b6000611f8d602483611642565b9150611f9882611f31565b604082019050919050565b60006020820190508181036000830152611fbc81611f80565b9050919050565b7f4e487b7100000000000000000000000000000000000000000000000000000000600052601160045260246000fd5b6000611ffd826116f2565b9150612008836116f2565b92508282101561201b5761201a611fc3565b5b828203905092915050565b6000612031826116f2565b915061203c836116f2565b9250827fffffffffffffffffffffffffffffffffffffffffffffffffffffffffffffffff0382111561207157612070611fc3565b5b828201905092915050565b7f4552433732313a206d696e7420746f20746865207a65726f2061646472657373600082015250565b60006120b2602083611642565b91506120bd8261207c565b602082019050919050565b600060208201905081810360008301526120e1816120a5565b9050919050565b7f4552433732313a20746f6b656e20616c7265616479206d696e74656400000000600082015250565b600061211e601c83611642565b9150612129826120e8565b602082019050919050565b6000602082019050818103600083015261214d81612111565b9050919050565b7f4552433732313a20617070726f766520746f2063616c6c657200000000000000600082015250565b600061218a601983611642565b915061219582612154565b602082019050919050565b600060208201905081810360008301526121b98161217d565b9050919050565b7f4552433732313a207472616e7366657220746f206e6f6e20455243373231526560008201527f63656976657220696d706c656d656e7465720000000000000000000000000000602082015250565b600061221c603283611642565b9150612227826121c0565b604082019050919050565b6000602082019050818103600083015261224b8161220f565b9050919050565b600061225d826116f2565b91507fffffffffffffffffffffffffffffffffffffffffffffffffffffffffffffffff820361228f5761228e611fc3565b5b600182019050919050565b7f4e487b7100000000000000000000000000000000000000000000000000000000600052601260045260246000fd5b60006122d4826116f2565b91506122df836116f2565b9250826122ef576122ee61229a565b5b828204905092915050565b6000612305826116f2565b9150612310836116f2565b9250826123205761231f61229a565b5b828206905092915050565b7f4e487b7100000000000000000000000000000000000000000000000000000000600052603260045260246000fd5b600081519050919050565b600082825260208201905092915050565b60006123818261235a565b61238b8185612365565b935061239b818560208601611653565b6123a481611686565b840191505092915050565b60006080820190506123c46000830187611787565b6123d16020830186611787565b6123de604083018561189d565b81810360608301526123f08184612376565b905095945050505050565b60008151905061240a816115a8565b92915050565b60006020828403121561242657612425611572565b5b6000612434848285016123fb565b9150509291505056fea2646970667358221220cac4c649de7f5eeb5c36d726c65c4a471246926834691844925bd226d7b1cce064736f6c634300080d0033",
  "immutableReferences": {},
  "source": "// SPDX-License-Identifier: MIT\npragma solidity >=0.4.22 <0.9.0;\n\nimport \"@openzeppelin/contracts/token/ERC721/ERC721.sol\";\n\n\n\ncontract SimpleNFT is ERC721 {\n    constructor() ERC721(\"Mock NFT\", \"MNFT\") {}\n    function mint(uint256 tokenId) public {\n        _mint(msg.sender, tokenId);\n    }\n}",
  "sourcePath": "/Users/victorcollasanta/Desktop/Github/NFTLend/snap-contracts/packages/truffle/contracts/SimpleNFT.sol",
  "compiler": {
    "name": "solc",
    "version": "0.8.13+commit.abaa5c0e.Emscripten.clang"
  },
  "schemaVersion": "3.4.16",
  "updatedAt": "2024-02-18T00:45:06.630Z",
  "networkType": "ethereum",
  "devdoc": {
    "kind": "dev",
    "methods": {
      "approve(address,uint256)": {
        "details": "See {IERC721-approve}."
      },
      "balanceOf(address)": {
        "details": "See {IERC721-balanceOf}."
      },
      "getApproved(uint256)": {
        "details": "See {IERC721-getApproved}."
      },
      "isApprovedForAll(address,address)": {
        "details": "See {IERC721-isApprovedForAll}."
      },
      "name()": {
        "details": "See {IERC721Metadata-name}."
      },
      "ownerOf(uint256)": {
        "details": "See {IERC721-ownerOf}."
      },
      "safeTransferFrom(address,address,uint256)": {
        "details": "See {IERC721-safeTransferFrom}."
      },
      "safeTransferFrom(address,address,uint256,bytes)": {
        "details": "See {IERC721-safeTransferFrom}."
      },
      "setApprovalForAll(address,bool)": {
        "details": "See {IERC721-setApprovalForAll}."
      },
      "supportsInterface(bytes4)": {
        "details": "See {IERC165-supportsInterface}."
      },
      "symbol()": {
        "details": "See {IERC721Metadata-symbol}."
      },
      "tokenURI(uint256)": {
        "details": "See {IERC721Metadata-tokenURI}."
      },
      "transferFrom(address,address,uint256)": {
        "details": "See {IERC721-transferFrom}."
      }
    },
    "version": 1
  },
  "userdoc": {
    "kind": "user",
    "methods": {},
    "version": 1
  }
}