{
  "contractName": "NFTVault",
  "abi": [
    {
      "inputs": [],
      "stateMutability": "nonpayable",
      "type": "constructor"
    },
    {
      "anonymous": false,
      "inputs": [
        {
          "indexed": false,
          "internalType": "uint256",
          "name": "loanId",
          "type": "uint256"
        },
        {
          "indexed": true,
          "internalType": "address",
          "name": "initialOwner",
          "type": "address"
        }
      ],
      "name": "DefaultCollateral",
      "type": "event"
    },
    {
      "anonymous": false,
      "inputs": [
        {
          "indexed": false,
          "internalType": "uint256",
          "name": "loanId",
          "type": "uint256"
        },
        {
          "indexed": true,
          "internalType": "address",
          "name": "lender",
          "type": "address"
        },
        {
          "indexed": false,
          "internalType": "uint256",
          "name": "startDate",
          "type": "uint256"
        }
      ],
      "name": "LoanLended",
      "type": "event"
    },
    {
      "anonymous": false,
      "inputs": [
        {
          "indexed": false,
          "internalType": "uint256",
          "name": "loanId",
          "type": "uint256"
        },
        {
          "indexed": true,
          "internalType": "address",
          "name": "lender",
          "type": "address"
        },
        {
          "indexed": false,
          "internalType": "uint256",
          "name": "repaymentAmount",
          "type": "uint256"
        },
        {
          "indexed": false,
          "internalType": "uint256",
          "name": "proportionalInteresPaid",
          "type": "uint256"
        },
        {
          "indexed": false,
          "internalType": "uint256",
          "name": "timePassed",
          "type": "uint256"
        },
        {
          "indexed": false,
          "internalType": "uint256",
          "name": "refundExcessAmount",
          "type": "uint256"
        }
      ],
      "name": "LoanRepaid",
      "type": "event"
    },
    {
      "anonymous": false,
      "inputs": [
        {
          "indexed": false,
          "internalType": "uint256",
          "name": "loanId",
          "type": "uint256"
        },
        {
          "indexed": true,
          "internalType": "address",
          "name": "initialOwner",
          "type": "address"
        },
        {
          "indexed": true,
          "internalType": "address",
          "name": "nftContractAddress",
          "type": "address"
        },
        {
          "indexed": true,
          "internalType": "uint256",
          "name": "tokenId",
          "type": "uint256"
        },
        {
          "indexed": false,
          "internalType": "uint256",
          "name": "principal",
          "type": "uint256"
        },
        {
          "indexed": false,
          "internalType": "uint256",
          "name": "duration",
          "type": "uint256"
        },
        {
          "indexed": false,
          "internalType": "uint256",
          "name": "interest",
          "type": "uint256"
        }
      ],
      "name": "LoanTermsSet",
      "type": "event"
    },
    {
      "inputs": [],
      "name": "feePercentage",
      "outputs": [
        {
          "internalType": "uint256",
          "name": "",
          "type": "uint256"
        }
      ],
      "stateMutability": "view",
      "type": "function",
      "constant": true
    },
    {
      "inputs": [],
      "name": "loanId",
      "outputs": [
        {
          "internalType": "uint256",
          "name": "",
          "type": "uint256"
        }
      ],
      "stateMutability": "view",
      "type": "function",
      "constant": true
    },
    {
      "inputs": [
        {
          "internalType": "uint256",
          "name": "",
          "type": "uint256"
        }
      ],
      "name": "loans",
      "outputs": [
        {
          "internalType": "address",
          "name": "initialOwner",
          "type": "address"
        },
        {
          "internalType": "address",
          "name": "nftContractAddress",
          "type": "address"
        },
        {
          "internalType": "uint256",
          "name": "tokenId",
          "type": "uint256"
        },
        {
          "internalType": "uint256",
          "name": "principal",
          "type": "uint256"
        },
        {
          "internalType": "uint256",
          "name": "duration",
          "type": "uint256"
        },
        {
          "internalType": "uint256",
          "name": "interest",
          "type": "uint256"
        },
        {
          "internalType": "address",
          "name": "lender",
          "type": "address"
        },
        {
          "internalType": "uint256",
          "name": "startDate",
          "type": "uint256"
        },
        {
          "internalType": "enum NFTVault.LoanStatus",
          "name": "status",
          "type": "uint8"
        }
      ],
      "stateMutability": "view",
      "type": "function",
      "constant": true
    },
    {
      "inputs": [],
      "name": "owner",
      "outputs": [
        {
          "internalType": "address payable",
          "name": "",
          "type": "address"
        }
      ],
      "stateMutability": "view",
      "type": "function",
      "constant": true
    },
    {
      "inputs": [],
      "name": "totalFeesCollected",
      "outputs": [
        {
          "internalType": "uint256",
          "name": "",
          "type": "uint256"
        }
      ],
      "stateMutability": "view",
      "type": "function",
      "constant": true
    },
    {
      "inputs": [
        {
          "internalType": "address",
          "name": "nftAddress",
          "type": "address"
        },
        {
          "internalType": "uint256",
          "name": "tokenId",
          "type": "uint256"
        },
        {
          "internalType": "uint256",
          "name": "principal",
          "type": "uint256"
        },
        {
          "internalType": "uint256",
          "name": "duration",
          "type": "uint256"
        },
        {
          "internalType": "uint256",
          "name": "interest",
          "type": "uint256"
        }
      ],
      "name": "setLoanTerms",
      "outputs": [],
      "stateMutability": "nonpayable",
      "type": "function"
    },
    {
      "inputs": [
        {
          "internalType": "uint256",
          "name": "_loanId",
          "type": "uint256"
        }
      ],
      "name": "lend",
      "outputs": [],
      "stateMutability": "payable",
      "type": "function",
      "payable": true
    },
    {
      "inputs": [
        {
          "internalType": "uint256",
          "name": "_loanId",
          "type": "uint256"
        }
      ],
      "name": "defaultCollateral",
      "outputs": [],
      "stateMutability": "nonpayable",
      "type": "function"
    },
    {
      "inputs": [
        {
          "internalType": "uint256",
          "name": "_loanId",
          "type": "uint256"
        }
      ],
      "name": "repay",
      "outputs": [],
      "stateMutability": "payable",
      "type": "function",
      "payable": true
    },
    {
      "inputs": [],
      "name": "withdrawFees",
      "outputs": [],
      "stateMutability": "nonpayable",
      "type": "function"
    },
    {
      "inputs": [
        {
          "internalType": "address",
          "name": "",
          "type": "address"
        },
        {
          "internalType": "address",
          "name": "",
          "type": "address"
        },
        {
          "internalType": "uint256",
          "name": "",
          "type": "uint256"
        },
        {
          "internalType": "bytes",
          "name": "",
          "type": "bytes"
        }
      ],
      "name": "onERC721Received",
      "outputs": [
        {
          "internalType": "bytes4",
          "name": "",
          "type": "bytes4"
        }
      ],
      "stateMutability": "pure",
      "type": "function",
      "constant": true
    }
  ],
  "bytecode": "0x608060405260018055600060045534801561001957600080fd5b50600160008190555033600260006101000a81548173ffffffffffffffffffffffffffffffffffffffff021916908373ffffffffffffffffffffffffffffffffffffffff16021790555061252b806100726000396000f3fe60806040526004361061009c5760003560e01c8063a001ecdd11610064578063a001ecdd14610167578063a6aa57ce14610192578063c95669a5146101ae578063e1ec3c68146101d9578063eaaa77961461021e578063f59ff45e146102475761009c565b8063150b7a02146100a1578063371fd8e6146100de578063476343ee146100fa57806360c6d8ae146101115780638da5cb5b1461013c575b600080fd5b3480156100ad57600080fd5b506100c860048036038101906100c391906117de565b610270565b6040516100d591906118a1565b60405180910390f35b6100f860048036038101906100f391906118bc565b610285565b005b34801561010657600080fd5b5061010f610755565b005b34801561011d57600080fd5b506101266108b5565b60405161013391906118f8565b60405180910390f35b34801561014857600080fd5b506101516108bb565b60405161015e9190611934565b60405180910390f35b34801561017357600080fd5b5061017c6108e1565b60405161018991906118f8565b60405180910390f35b6101ac60048036038101906101a791906118bc565b6108e7565b005b3480156101ba57600080fd5b506101c3610eac565b6040516101d091906118f8565b60405180910390f35b3480156101e557600080fd5b5061020060048036038101906101fb91906118bc565b610eb2565b604051610215999897969594939291906119d5565b60405180910390f35b34801561022a57600080fd5b50610245600480360381019061024091906118bc565b610f6d565b005b34801561025357600080fd5b5061026e60048036038101906102699190611a62565b61123d565b005b600063150b7a0260e01b905095945050505050565b6002600054036102ca576040517f08c379a00000000000000000000000000000000000000000000000000000000081526004016102c190611b3a565b60405180910390fd5b6002600081905550600060056000838152602001908152602001600020905060006005600084815260200190815260200160002060010160009054906101000a900473ffffffffffffffffffffffffffffffffffffffff1690508160000160009054906101000a900473ffffffffffffffffffffffffffffffffffffffff1673ffffffffffffffffffffffffffffffffffffffff163373ffffffffffffffffffffffffffffffffffffffff16146103b6576040517f08c379a00000000000000000000000000000000000000000000000000000000081526004016103ad90611ba6565b60405180910390fd5b6103d18260040154836007015461168390919063ffffffff16565b421115610413576040517f08c379a000000000000000000000000000000000000000000000000000000000815260040161040a90611c12565b60405180910390fd5b600061042c83600701544261169990919063ffffffff16565b905060006104618460040154610453670de0b6b3a7640000856116af90919063ffffffff16565b6116c590919063ffffffff16565b90506000610496670de0b6b3a76400006104888488600501546116af90919063ffffffff16565b6116c590919063ffffffff16565b905060006104b182876003015461168390919063ffffffff16565b9050803410156104f6576040517f08c379a00000000000000000000000000000000000000000000000000000000081526004016104ed90611c7e565b60405180910390fd5b600061050b823461169990919063ffffffff16565b9050600081111561055e573373ffffffffffffffffffffffffffffffffffffffff166108fc829081150290604051600060405180830381858888f1935050505015801561055c573d6000803e3d6000fd5b505b8573ffffffffffffffffffffffffffffffffffffffff166342842e0e308960000160009054906101000a900473ffffffffffffffffffffffffffffffffffffffff168a600201546040518463ffffffff1660e01b81526004016105c393929190611c9e565b600060405180830381600087803b1580156105dd57600080fd5b505af11580156105f1573d6000803e3d6000fd5b50505050600061061f6064610611600154866116af90919063ffffffff16565b6116c590919063ffffffff16565b90506106368160035461168390919063ffffffff16565b6003819055506000610651828561169990919063ffffffff16565b90508860060160009054906101000a900473ffffffffffffffffffffffffffffffffffffffff1673ffffffffffffffffffffffffffffffffffffffff166108fc829081150290604051600060405180830381858888f193505050501580156106bd573d6000803e3d6000fd5b5060038960080160006101000a81548160ff021916908360038111156106e6576106e561195e565b5b02179055503373ffffffffffffffffffffffffffffffffffffffff167f096eee4238d7fc8b087bfbce1d8c5019025fcdd6db735aa0c1810ab450ccc81d8b83888b88604051610739959493929190611cd5565b60405180910390a2505050505050505050600160008190555050565b60026000540361079a576040517f08c379a000000000000000000000000000000000000000000000000000000000815260040161079190611b3a565b60405180910390fd5b6002600081905550600260009054906101000a900473ffffffffffffffffffffffffffffffffffffffff1673ffffffffffffffffffffffffffffffffffffffff163373ffffffffffffffffffffffffffffffffffffffff1614610832576040517f08c379a000000000000000000000000000000000000000000000000000000000815260040161082990611d74565b60405180910390fd5b600060035490506000600381905550600260009054906101000a900473ffffffffffffffffffffffffffffffffffffffff1673ffffffffffffffffffffffffffffffffffffffff166108fc829081150290604051600060405180830381858888f193505050501580156108a9573d6000803e3d6000fd5b50506001600081905550565b60035481565b600260009054906101000a900473ffffffffffffffffffffffffffffffffffffffff1681565b60015481565b60026000540361092c576040517f08c379a000000000000000000000000000000000000000000000000000000000815260040161092390611b3a565b60405180910390fd5b600260008190555060006005600083815260200190815260200160002060010160009054906101000a900473ffffffffffffffffffffffffffffffffffffffff16905060006005600084815260200190815260200160002090503373ffffffffffffffffffffffffffffffffffffffff168160000160009054906101000a900473ffffffffffffffffffffffffffffffffffffffff1673ffffffffffffffffffffffffffffffffffffffff1603610a18576040517f08c379a0000000000000000000000000000000000000000000000000000000008152600401610a0f90611de0565b60405180910390fd5b60006003811115610a2c57610a2b61195e565b5b8160080160009054906101000a900460ff166003811115610a5057610a4f61195e565b5b14610a90576040517f08c379a0000000000000000000000000000000000000000000000000000000008152600401610a8790611e4c565b60405180910390fd5b8060000160009054906101000a900473ffffffffffffffffffffffffffffffffffffffff1673ffffffffffffffffffffffffffffffffffffffff168273ffffffffffffffffffffffffffffffffffffffff16636352211e83600201546040518263ffffffff1660e01b8152600401610b0891906118f8565b602060405180830381865afa158015610b25573d6000803e3d6000fd5b505050506040513d601f19601f82011682018060405250810190610b499190611e81565b73ffffffffffffffffffffffffffffffffffffffff1614610b9f576040517f08c379a0000000000000000000000000000000000000000000000000000000008152600401610b9690611f20565b60405180910390fd5b3073ffffffffffffffffffffffffffffffffffffffff168273ffffffffffffffffffffffffffffffffffffffff1663081812fc83600201546040518263ffffffff1660e01b8152600401610bf391906118f8565b602060405180830381865afa158015610c10573d6000803e3d6000fd5b505050506040513d601f19601f82011682018060405250810190610c349190611e81565b73ffffffffffffffffffffffffffffffffffffffff1614610c8a576040517f08c379a0000000000000000000000000000000000000000000000000000000008152600401610c8190611fb2565b60405180910390fd5b80600301543414610cd0576040517f08c379a0000000000000000000000000000000000000000000000000000000008152600401610cc790612044565b60405180910390fd5b8173ffffffffffffffffffffffffffffffffffffffff166342842e0e8260000160009054906101000a900473ffffffffffffffffffffffffffffffffffffffff163084600201546040518463ffffffff1660e01b8152600401610d3593929190611c9e565b600060405180830381600087803b158015610d4f57600080fd5b505af1158015610d63573d6000803e3d6000fd5b505050508060000160009054906101000a900473ffffffffffffffffffffffffffffffffffffffff1673ffffffffffffffffffffffffffffffffffffffff166108fc349081150290604051600060405180830381858888f19350505050158015610dd1573d6000803e3d6000fd5b50338160060160006101000a81548173ffffffffffffffffffffffffffffffffffffffff021916908373ffffffffffffffffffffffffffffffffffffffff16021790555042816007018190555060018160080160006101000a81548160ff02191690836003811115610e4657610e4561195e565b5b02179055503373ffffffffffffffffffffffffffffffffffffffff167f50fba0e5774dc04072ca1af43be0ddad55d12bf75aa2000c50cef1e5b71316dd848360070154604051610e97929190612064565b60405180910390a25050600160008190555050565b60045481565b60056020528060005260406000206000915090508060000160009054906101000a900473ffffffffffffffffffffffffffffffffffffffff16908060010160009054906101000a900473ffffffffffffffffffffffffffffffffffffffff16908060020154908060030154908060040154908060050154908060060160009054906101000a900473ffffffffffffffffffffffffffffffffffffffff16908060070154908060080160009054906101000a900460ff16905089565b60006005600083815260200190815260200160002060010160009054906101000a900473ffffffffffffffffffffffffffffffffffffffff169050600060056000848152602001908152602001600020905060016003811115610fd357610fd261195e565b5b8160080160009054906101000a900460ff166003811115610ff757610ff661195e565b5b14611037576040517f08c379a000000000000000000000000000000000000000000000000000000000815260040161102e906120d9565b60405180910390fd5b8060060160009054906101000a900473ffffffffffffffffffffffffffffffffffffffff1673ffffffffffffffffffffffffffffffffffffffff163373ffffffffffffffffffffffffffffffffffffffff16146110c9576040517f08c379a00000000000000000000000000000000000000000000000000000000081526004016110c090612145565b60405180910390fd5b6110e48160040154826007015461168390919063ffffffff16565b421015611126576040517f08c379a000000000000000000000000000000000000000000000000000000000815260040161111d906121b1565b60405180910390fd5b8173ffffffffffffffffffffffffffffffffffffffff166342842e0e308360060160009054906101000a900473ffffffffffffffffffffffffffffffffffffffff1684600201546040518463ffffffff1660e01b815260040161118b93929190611c9e565b600060405180830381600087803b1580156111a557600080fd5b505af11580156111b9573d6000803e3d6000fd5b5050505060028160080160006101000a81548160ff021916908360038111156111e5576111e461195e565b5b02179055503373ffffffffffffffffffffffffffffffffffffffff167f98c320799746eb744ecda01e680e73e2aae1a30de8478346d95a4aa075b9d63f8460405161123091906118f8565b60405180910390a2505050565b60008590503373ffffffffffffffffffffffffffffffffffffffff168173ffffffffffffffffffffffffffffffffffffffff16636352211e876040518263ffffffff1660e01b815260040161129291906118f8565b602060405180830381865afa1580156112af573d6000803e3d6000fd5b505050506040513d601f19601f820116820180604052508101906112d39190611e81565b73ffffffffffffffffffffffffffffffffffffffff1614611329576040517f08c379a000000000000000000000000000000000000000000000000000000000815260040161132090612243565b60405180910390fd5b3073ffffffffffffffffffffffffffffffffffffffff168173ffffffffffffffffffffffffffffffffffffffff1663081812fc876040518263ffffffff1660e01b815260040161137991906118f8565b602060405180830381865afa158015611396573d6000803e3d6000fd5b505050506040513d601f19601f820116820180604052508101906113ba9190611e81565b73ffffffffffffffffffffffffffffffffffffffff1614611410576040517f08c379a0000000000000000000000000000000000000000000000000000000008152600401611407906122d5565b60405180910390fd5b60046000815461141f90612324565b919050819055506040518061012001604052803373ffffffffffffffffffffffffffffffffffffffff1681526020018773ffffffffffffffffffffffffffffffffffffffff168152602001868152602001858152602001848152602001838152602001600073ffffffffffffffffffffffffffffffffffffffff16815260200160008152602001600060038111156114ba576114b961195e565b5b81525060056000600454815260200190815260200160002060008201518160000160006101000a81548173ffffffffffffffffffffffffffffffffffffffff021916908373ffffffffffffffffffffffffffffffffffffffff16021790555060208201518160010160006101000a81548173ffffffffffffffffffffffffffffffffffffffff021916908373ffffffffffffffffffffffffffffffffffffffff16021790555060408201518160020155606082015181600301556080820151816004015560a0820151816005015560c08201518160060160006101000a81548173ffffffffffffffffffffffffffffffffffffffff021916908373ffffffffffffffffffffffffffffffffffffffff16021790555060e082015181600701556101008201518160080160006101000a81548160ff021916908360038111156116055761160461195e565b5b0217905550905050848673ffffffffffffffffffffffffffffffffffffffff163373ffffffffffffffffffffffffffffffffffffffff167fc2203cd6a09a84b9e792a397d7e2d4e1af274e954acf2ec41eadd16502eef4f3600454888888604051611673949392919061236c565b60405180910390a4505050505050565b6000818361169191906123b1565b905092915050565b600081836116a79190612407565b905092915050565b600081836116bd919061243b565b905092915050565b600081836116d391906124c4565b905092915050565b600080fd5b600080fd5b600073ffffffffffffffffffffffffffffffffffffffff82169050919050565b6000611710826116e5565b9050919050565b61172081611705565b811461172b57600080fd5b50565b60008135905061173d81611717565b92915050565b6000819050919050565b61175681611743565b811461176157600080fd5b50565b6000813590506117738161174d565b92915050565b600080fd5b600080fd5b600080fd5b60008083601f84011261179e5761179d611779565b5b8235905067ffffffffffffffff8111156117bb576117ba61177e565b5b6020830191508360018202830111156117d7576117d6611783565b5b9250929050565b6000806000806000608086880312156117fa576117f96116db565b5b60006118088882890161172e565b95505060206118198882890161172e565b945050604061182a88828901611764565b935050606086013567ffffffffffffffff81111561184b5761184a6116e0565b5b61185788828901611788565b92509250509295509295909350565b60007fffffffff0000000000000000000000000000000000000000000000000000000082169050919050565b61189b81611866565b82525050565b60006020820190506118b66000830184611892565b92915050565b6000602082840312156118d2576118d16116db565b5b60006118e084828501611764565b91505092915050565b6118f281611743565b82525050565b600060208201905061190d60008301846118e9565b92915050565b600061191e826116e5565b9050919050565b61192e81611913565b82525050565b60006020820190506119496000830184611925565b92915050565b61195881611705565b82525050565b7f4e487b7100000000000000000000000000000000000000000000000000000000600052602160045260246000fd5b6004811061199e5761199d61195e565b5b50565b60008190506119af8261198d565b919050565b60006119bf826119a1565b9050919050565b6119cf816119b4565b82525050565b6000610120820190506119eb600083018c61194f565b6119f8602083018b61194f565b611a05604083018a6118e9565b611a1260608301896118e9565b611a1f60808301886118e9565b611a2c60a08301876118e9565b611a3960c083018661194f565b611a4660e08301856118e9565b611a546101008301846119c6565b9a9950505050505050505050565b600080600080600060a08688031215611a7e57611a7d6116db565b5b6000611a8c8882890161172e565b9550506020611a9d88828901611764565b9450506040611aae88828901611764565b9350506060611abf88828901611764565b9250506080611ad088828901611764565b9150509295509295909350565b600082825260208201905092915050565b7f5265656e7472616e637947756172643a207265656e7472616e742063616c6c00600082015250565b6000611b24601f83611add565b9150611b2f82611aee565b602082019050919050565b60006020820190508181036000830152611b5381611b17565b9050919050565b7f43616c6c6572206973206e6f742074686520696e697469616c206f776e657200600082015250565b6000611b90601f83611add565b9150611b9b82611b5a565b602082019050919050565b60006020820190508181036000830152611bbf81611b83565b9050919050565b7f52657061796d656e742064617465206861732070617373656400000000000000600082015250565b6000611bfc601983611add565b9150611c0782611bc6565b602082019050919050565b60006020820190508181036000830152611c2b81611bef565b9050919050565b7f496e73756666696369656e742072657061796d656e7420616d6f756e74000000600082015250565b6000611c68601d83611add565b9150611c7382611c32565b602082019050919050565b60006020820190508181036000830152611c9781611c5b565b9050919050565b6000606082019050611cb3600083018661194f565b611cc0602083018561194f565b611ccd60408301846118e9565b949350505050565b600060a082019050611cea60008301886118e9565b611cf760208301876118e9565b611d0460408301866118e9565b611d1160608301856118e9565b611d1e60808301846118e9565b9695505050505050565b7f4f6e6c7920746865206f776e65722063616e2077697468647261772066656573600082015250565b6000611d5e602083611add565b9150611d6982611d28565b602082019050919050565b60006020820190508181036000830152611d8d81611d51565b9050919050565b7f596f752063616e74206c656e6420746f20796f757273656c6600000000000000600082015250565b6000611dca601983611add565b9150611dd582611d94565b602082019050919050565b60006020820190508181036000830152611df981611dbd565b9050919050565b7f4c6f616e206973206e6f7420617661696c61626c650000000000000000000000600082015250565b6000611e36601583611add565b9150611e4182611e00565b602082019050919050565b60006020820190508181036000830152611e6581611e29565b9050919050565b600081519050611e7b81611717565b92915050565b600060208284031215611e9757611e966116db565b5b6000611ea584828501611e6c565b91505092915050565b7f496e697469616c206f776e6572206e6f206c6f6e676572206f776e732074686560008201527f204e465400000000000000000000000000000000000000000000000000000000602082015250565b6000611f0a602483611add565b9150611f1582611eae565b604082019050919050565b60006020820190508181036000830152611f3981611efd565b9050919050565b7f436f6e7472616374206973206e6f7420617070726f76656420746f207472616e60008201527f736665722074686973204e465400000000000000000000000000000000000000602082015250565b6000611f9c602d83611add565b9150611fa782611f40565b604082019050919050565b60006020820190508181036000830152611fcb81611f8f565b9050919050565b7f53656e7420616d6f756e74206973206e6f7420657175616c20746f207468652060008201527f7072696e636970616c20616d6f756e7400000000000000000000000000000000602082015250565b600061202e603083611add565b915061203982611fd2565b604082019050919050565b6000602082019050818103600083015261205d81612021565b9050919050565b600060408201905061207960008301856118e9565b61208660208301846118e9565b9392505050565b7f4c6f616e206973206e6f74206163746976650000000000000000000000000000600082015250565b60006120c3601283611add565b91506120ce8261208d565b602082019050919050565b600060208201905081810360008301526120f2816120b6565b9050919050565b7f43616c6c6572206973206e6f7420746865206c656e6465720000000000000000600082015250565b600061212f601883611add565b915061213a826120f9565b602082019050919050565b6000602082019050818103600083015261215e81612122565b9050919050565b7f4c6f616e206475726174696f6e20686173206e6f742070617373656400000000600082015250565b600061219b601c83611add565b91506121a682612165565b602082019050919050565b600060208201905081810360008301526121ca8161218e565b9050919050565b7f43616c6c6572206973206e6f7420746865206f776e6572206f6620746865204e60008201527f4654000000000000000000000000000000000000000000000000000000000000602082015250565b600061222d602283611add565b9150612238826121d1565b604082019050919050565b6000602082019050818103600083015261225c81612220565b9050919050565b7f436f6e7472616374206973206e6f7420617070726f76656420746f206d616e6160008201527f67652074686973204e4654000000000000000000000000000000000000000000602082015250565b60006122bf602b83611add565b91506122ca82612263565b604082019050919050565b600060208201905081810360008301526122ee816122b2565b9050919050565b7f4e487b7100000000000000000000000000000000000000000000000000000000600052601160045260246000fd5b600061232f82611743565b91507fffffffffffffffffffffffffffffffffffffffffffffffffffffffffffffffff8203612361576123606122f5565b5b600182019050919050565b600060808201905061238160008301876118e9565b61238e60208301866118e9565b61239b60408301856118e9565b6123a860608301846118e9565b95945050505050565b60006123bc82611743565b91506123c783611743565b9250827fffffffffffffffffffffffffffffffffffffffffffffffffffffffffffffffff038211156123fc576123fb6122f5565b5b828201905092915050565b600061241282611743565b915061241d83611743565b9250828210156124305761242f6122f5565b5b828203905092915050565b600061244682611743565b915061245183611743565b9250817fffffffffffffffffffffffffffffffffffffffffffffffffffffffffffffffff048311821515161561248a576124896122f5565b5b828202905092915050565b7f4e487b7100000000000000000000000000000000000000000000000000000000600052601260045260246000fd5b60006124cf82611743565b91506124da83611743565b9250826124ea576124e9612495565b5b82820490509291505056fea264697066735822122093984fd4191667768f6d64fda5cdd0b4fbbb6b93ead990a8378838fa93c3111164736f6c634300080d0033",
  "immutableReferences": {},
  "source": "// SPDX-License-Identifier: MIT\npragma solidity >=0.4.22 <0.9.0;\nimport \"@openzeppelin/contracts/interfaces/IERC721.sol\";\nimport \"@openzeppelin/contracts/utils/math/SafeMath.sol\";\nimport \"@openzeppelin/contracts/security/ReentrancyGuard.sol\";\nimport \"@openzeppelin/contracts/token/ERC721/IERC721Receiver.sol\";\nimport \"truffle/console.sol\";\n\ncontract NFTVault is ReentrancyGuard, IERC721Receiver {\n  using SafeMath for uint256;\n\n  constructor() {\n    owner = payable(msg.sender);  // Set the contract deployer as the owner\n  }\n\n  uint256 public feePercentage = 1;  // 1% fee\n  address payable public owner;\n  uint256 public totalFeesCollected;\n\n  enum LoanStatus { Available, Active, Defaulted, Repaid }\n  struct Loan {\n    address initialOwner;\n    address nftContractAddress;\n    uint256 tokenId;\n    uint256 principal;\n    uint256 duration;\n    uint256 interest;\n    address lender;\n    uint256 startDate;\n    LoanStatus status;\n  }\n\n  uint256 public loanId = 0;\n  mapping(uint256 => Loan) public loans;\n\n  // Define events\n  event LoanTermsSet(uint256 loanId, address indexed initialOwner, address indexed nftContractAddress, uint256 indexed tokenId, uint256 principal, uint256 duration, uint256 interest);\n  event LoanLended(uint256 loanId, address indexed lender, uint256 startDate);\n  event DefaultCollateral(uint256 loanId, address indexed initialOwner);\n  event LoanRepaid(uint256 loanId, address indexed lender, uint256 repaymentAmount,uint256 proportionalInteresPaid, uint256 timePassed, uint256 refundExcessAmount);\n\n  function setLoanTerms(address nftAddress, uint256 tokenId, uint256 principal, uint256 duration, uint256 interest) public {\n    IERC721 nftContract = IERC721(nftAddress);\n    \n    // Check if the caller is the owner of the NFT\n    require(nftContract.ownerOf(tokenId) == msg.sender, \"Caller is not the owner of the NFT\");\n\n    // Check if the owner has given permission for the contract to manage this specific NFT\n    require(nftContract.getApproved(tokenId) == address(this), \"Contract is not approved to manage this NFT\");\n\n    ++loanId;\n    // Store the loan details with a new loan ID\n    loans[loanId] = Loan(msg.sender, nftAddress, tokenId, principal, duration, interest, address(0), 0, LoanStatus.Available);\n\n    // Emit event\n    emit LoanTermsSet(loanId, msg.sender, nftAddress, tokenId, principal, duration, interest);\n  }\n\n  function lend(uint256 _loanId) public payable nonReentrant {\n    IERC721 nftContract = IERC721(loans[_loanId].nftContractAddress);\n    Loan storage loan = loans[_loanId];\n    \n    require(loan.initialOwner != msg.sender, \"You cant lend to yourself\");\n\n    // Check if the loan is available\n    require(loan.status == LoanStatus.Available, \"Loan is not available\");\n\n    // Check if the initial owner still owns the NFT\n    require(nftContract.ownerOf(loan.tokenId) == loan.initialOwner, \"Initial owner no longer owns the NFT\");\n\n    // Check if the contract is still approved to transfer the NFT\n    require(nftContract.getApproved(loan.tokenId) == address(this), \"Contract is not approved to transfer this NFT\");\n\n    // Check if the amount of ETH sent is equal to the loan principal\n    require(msg.value == loan.principal, \"Sent amount is not equal to the principal amount\");\n\n    // Transfer the NFT from the initial owner to the contract\n    nftContract.safeTransferFrom(loan.initialOwner, address(this), loan.tokenId);\n\n    // Transfer the ETH to the initial owner of the loan\n    payable(loan.initialOwner).transfer(msg.value);\n\n    // Set the lender and start date of the loan\n    loan.lender = msg.sender;\n    loan.startDate = block.timestamp;\n    loan.status = LoanStatus.Active;\n\n    // Emit event\n    emit LoanLended(_loanId, msg.sender, loan.startDate);\n  }\n\n  function defaultCollateral(uint256 _loanId) public {\n    IERC721 nftContract = IERC721(loans[_loanId].nftContractAddress);\n    Loan storage loan = loans[_loanId];\n\n    require(loan.status == LoanStatus.Active, \"Loan is not active\");\n    // Check if the caller is the lender of the loan\n    require(msg.sender == loan.lender, \"Caller is not the lender\");\n\n    // Check if the loan duration has passed\n    require(block.timestamp >= loan.startDate.add(loan.duration), \"Loan duration has not passed\");\n\n    // Transfer the NFT from the contract to the lender\n    nftContract.safeTransferFrom(address(this), loan.lender, loan.tokenId);\n\n    loan.status = LoanStatus.Defaulted;\n\n    // Emit event\n    emit DefaultCollateral(_loanId, msg.sender);\n  }\n\n  function repay(uint256 _loanId) public payable nonReentrant {\n    Loan storage loan = loans[_loanId];\n    IERC721 nftContract = IERC721(loans[_loanId].nftContractAddress);\n\n    // Check if the caller is the initial owner of the NFT\n    require(msg.sender == loan.initialOwner, \"Caller is not the initial owner\");\n\n    // Check if the repayment date is within the loan duration\n    require(block.timestamp <= loan.startDate.add(loan.duration), \"Repayment date has passed\");\n\n    // Calculate the proportion of the loan duration that has passed\n    uint256 timePassed = block.timestamp.sub(loan.startDate);\n    // Multiply by 1e18 to keep precision\n    uint256 durationProportion = timePassed.mul(1e18).div(loan.duration);\n    // Calculate the proportional interest\n    uint256 proportionalInterestPaid = loan.interest.mul(durationProportion).div(1e18);\n    // Calculate the total repayment amount\n    uint256 repaymentAmount = loan.principal.add(proportionalInterestPaid);\n    // Check if value sent is enough to repay the loan\n    require(msg.value >= repaymentAmount, \"Insufficient repayment amount\");\n\n\n    uint256 refundExcessAmount = msg.value.sub(repaymentAmount);\n\n    // If the amount of ETH sent is more than the repayment amount, refund the excess\n    if (refundExcessAmount > 0) {\n      payable(msg.sender).transfer(refundExcessAmount);\n    }\n\n    // Transfer the NFT from the contract back to the initial owner\n    nftContract.safeTransferFrom(address(this), loan.initialOwner, loan.tokenId);\n\n    // Subtract the protocol fee from the repayment amount\n    uint256 fee = repaymentAmount.mul(feePercentage).div(100);  // Calculate the fee\n\n    totalFeesCollected = totalFeesCollected.add(fee);  // Add the fee to the total fees collected\n    uint256 repaymentAmounMinusFee = repaymentAmount.sub(fee);\n\n    // Transfer the ETH to the lender\n    payable(loan.lender).transfer(repaymentAmounMinusFee);\n\n    loan.status = LoanStatus.Repaid;\n    \n    // Emit event\n    emit LoanRepaid(_loanId, msg.sender, repaymentAmounMinusFee, proportionalInterestPaid, timePassed, refundExcessAmount);\n  }\n\n  function withdrawFees() public nonReentrant {\n    require(msg.sender == owner, \"Only the owner can withdraw fees\");\n\n    uint256 fees = totalFeesCollected;\n    totalFeesCollected = 0;  // Reset the collected fees\n\n    owner.transfer(fees);  // Transfer the fees to the owner\n  }\n\n  function onERC721Received(address, address, uint256, bytes calldata) pure external override returns (bytes4) {\n    return this.onERC721Received.selector;\n  }\n}\n",
  "sourcePath": "/Users/victorcollasanta/Desktop/Github/NFTLend/snap-contracts/packages/truffle/contracts/NFTvault.sol",
  "compiler": {
    "name": "solc",
    "version": "0.8.13+commit.abaa5c0e.Emscripten.clang"
  },
  "schemaVersion": "3.4.16",
  "updatedAt": "2024-02-17T01:09:49.348Z",
  "networkType": "ethereum",
  "devdoc": {
    "kind": "dev",
    "methods": {},
    "version": 1
  },
  "userdoc": {
    "kind": "user",
    "methods": {},
    "version": 1
  }
}