{
  "contractName": "NFTVault",
  "abi": [
    {
      "inputs": [],
      "stateMutability": "nonpayable",
      "type": "constructor"
    },
    {
      "anonymous": false,
      "inputs": [
        {
          "indexed": false,
          "internalType": "uint256",
          "name": "loanId",
          "type": "uint256"
        },
        {
          "indexed": true,
          "internalType": "address",
          "name": "initialOwner",
          "type": "address"
        }
      ],
      "name": "DefaultCollateral",
      "type": "event"
    },
    {
      "anonymous": false,
      "inputs": [
        {
          "indexed": false,
          "internalType": "uint256",
          "name": "loanId",
          "type": "uint256"
        },
        {
          "indexed": true,
          "internalType": "address",
          "name": "lender",
          "type": "address"
        },
        {
          "indexed": false,
          "internalType": "uint256",
          "name": "startDate",
          "type": "uint256"
        }
      ],
      "name": "LoanLended",
      "type": "event"
    },
    {
      "anonymous": false,
      "inputs": [
        {
          "indexed": false,
          "internalType": "uint256",
          "name": "loanId",
          "type": "uint256"
        },
        {
          "indexed": true,
          "internalType": "address",
          "name": "lender",
          "type": "address"
        },
        {
          "indexed": false,
          "internalType": "uint256",
          "name": "repaymentAmount",
          "type": "uint256"
        },
        {
          "indexed": false,
          "internalType": "uint256",
          "name": "proportionalInteresPaid",
          "type": "uint256"
        },
        {
          "indexed": false,
          "internalType": "uint256",
          "name": "timePassed",
          "type": "uint256"
        },
        {
          "indexed": false,
          "internalType": "uint256",
          "name": "refundExcessAmount",
          "type": "uint256"
        }
      ],
      "name": "LoanRepaid",
      "type": "event"
    },
    {
      "anonymous": false,
      "inputs": [
        {
          "indexed": false,
          "internalType": "uint256",
          "name": "loanId",
          "type": "uint256"
        },
        {
          "indexed": true,
          "internalType": "address",
          "name": "initialOwner",
          "type": "address"
        },
        {
          "indexed": true,
          "internalType": "address",
          "name": "nftContractAddress",
          "type": "address"
        },
        {
          "indexed": true,
          "internalType": "uint256",
          "name": "tokenId",
          "type": "uint256"
        },
        {
          "indexed": false,
          "internalType": "uint256",
          "name": "principal",
          "type": "uint256"
        },
        {
          "indexed": false,
          "internalType": "uint256",
          "name": "duration",
          "type": "uint256"
        },
        {
          "indexed": false,
          "internalType": "uint256",
          "name": "interest",
          "type": "uint256"
        }
      ],
      "name": "LoanTermsSet",
      "type": "event"
    },
    {
      "inputs": [],
      "name": "feePercentage",
      "outputs": [
        {
          "internalType": "uint256",
          "name": "",
          "type": "uint256"
        }
      ],
      "stateMutability": "view",
      "type": "function",
      "constant": true
    },
    {
      "inputs": [],
      "name": "loanId",
      "outputs": [
        {
          "internalType": "uint256",
          "name": "",
          "type": "uint256"
        }
      ],
      "stateMutability": "view",
      "type": "function",
      "constant": true
    },
    {
      "inputs": [
        {
          "internalType": "uint256",
          "name": "",
          "type": "uint256"
        }
      ],
      "name": "loans",
      "outputs": [
        {
          "internalType": "address",
          "name": "initialOwner",
          "type": "address"
        },
        {
          "internalType": "address",
          "name": "nftContractAddress",
          "type": "address"
        },
        {
          "internalType": "uint256",
          "name": "tokenId",
          "type": "uint256"
        },
        {
          "internalType": "uint256",
          "name": "principal",
          "type": "uint256"
        },
        {
          "internalType": "uint256",
          "name": "duration",
          "type": "uint256"
        },
        {
          "internalType": "uint256",
          "name": "interest",
          "type": "uint256"
        },
        {
          "internalType": "address",
          "name": "lender",
          "type": "address"
        },
        {
          "internalType": "uint256",
          "name": "startDate",
          "type": "uint256"
        },
        {
          "internalType": "enum NFTVault.LoanStatus",
          "name": "status",
          "type": "uint8"
        }
      ],
      "stateMutability": "view",
      "type": "function",
      "constant": true
    },
    {
      "inputs": [],
      "name": "owner",
      "outputs": [
        {
          "internalType": "address payable",
          "name": "",
          "type": "address"
        }
      ],
      "stateMutability": "view",
      "type": "function",
      "constant": true
    },
    {
      "inputs": [],
      "name": "totalFeesCollected",
      "outputs": [
        {
          "internalType": "uint256",
          "name": "",
          "type": "uint256"
        }
      ],
      "stateMutability": "view",
      "type": "function",
      "constant": true
    },
    {
      "inputs": [
        {
          "internalType": "address",
          "name": "nftAddress",
          "type": "address"
        },
        {
          "internalType": "uint256",
          "name": "tokenId",
          "type": "uint256"
        },
        {
          "internalType": "uint256",
          "name": "principal",
          "type": "uint256"
        },
        {
          "internalType": "uint256",
          "name": "duration",
          "type": "uint256"
        },
        {
          "internalType": "uint256",
          "name": "interest",
          "type": "uint256"
        }
      ],
      "name": "setLoanTerms",
      "outputs": [],
      "stateMutability": "nonpayable",
      "type": "function"
    },
    {
      "inputs": [
        {
          "internalType": "uint256",
          "name": "_loanId",
          "type": "uint256"
        }
      ],
      "name": "lend",
      "outputs": [],
      "stateMutability": "payable",
      "type": "function",
      "payable": true
    },
    {
      "inputs": [
        {
          "internalType": "uint256",
          "name": "_loanId",
          "type": "uint256"
        }
      ],
      "name": "defaultCollateral",
      "outputs": [],
      "stateMutability": "nonpayable",
      "type": "function"
    },
    {
      "inputs": [
        {
          "internalType": "uint256",
          "name": "_loanId",
          "type": "uint256"
        }
      ],
      "name": "repay",
      "outputs": [],
      "stateMutability": "payable",
      "type": "function",
      "payable": true
    },
    {
      "inputs": [],
      "name": "withdrawFees",
      "outputs": [],
      "stateMutability": "nonpayable",
      "type": "function"
    },
    {
      "inputs": [
        {
          "internalType": "address",
          "name": "",
          "type": "address"
        },
        {
          "internalType": "address",
          "name": "",
          "type": "address"
        },
        {
          "internalType": "uint256",
          "name": "",
          "type": "uint256"
        },
        {
          "internalType": "bytes",
          "name": "",
          "type": "bytes"
        }
      ],
      "name": "onERC721Received",
      "outputs": [
        {
          "internalType": "bytes4",
          "name": "",
          "type": "bytes4"
        }
      ],
      "stateMutability": "pure",
      "type": "function",
      "constant": true
    }
  ],
  "bytecode": "0x608060405260018055600060045534801561001957600080fd5b50600160008190555033600260006101000a81548173ffffffffffffffffffffffffffffffffffffffff021916908373ffffffffffffffffffffffffffffffffffffffff1602179055506124b5806100726000396000f3fe60806040526004361061009c5760003560e01c8063a001ecdd11610064578063a001ecdd14610167578063a6aa57ce14610192578063c95669a5146101ae578063e1ec3c68146101d9578063eaaa77961461021e578063f59ff45e146102475761009c565b8063150b7a02146100a1578063371fd8e6146100de578063476343ee146100fa57806360c6d8ae146101115780638da5cb5b1461013c575b600080fd5b3480156100ad57600080fd5b506100c860048036038101906100c39190611768565b610270565b6040516100d5919061182b565b60405180910390f35b6100f860048036038101906100f39190611846565b610285565b005b34801561010657600080fd5b5061010f610710565b005b34801561011d57600080fd5b5061012661082b565b6040516101339190611882565b60405180910390f35b34801561014857600080fd5b50610151610831565b60405161015e91906118be565b60405180910390f35b34801561017357600080fd5b5061017c610857565b6040516101899190611882565b60405180910390f35b6101ac60048036038101906101a79190611846565b61085d565b005b3480156101ba57600080fd5b506101c3610ddd565b6040516101d09190611882565b60405180910390f35b3480156101e557600080fd5b5061020060048036038101906101fb9190611846565b610de3565b6040516102159998979695949392919061195f565b60405180910390f35b34801561022a57600080fd5b5061024560048036038101906102409190611846565b610e9e565b005b34801561025357600080fd5b5061026e600480360381019061026991906119ec565b61116e565b005b600063150b7a0260e01b905095945050505050565b61028d6115b4565b600060056000838152602001908152602001600020905060006005600084815260200190815260200160002060010160009054906101000a900473ffffffffffffffffffffffffffffffffffffffff1690508160000160009054906101000a900473ffffffffffffffffffffffffffffffffffffffff1673ffffffffffffffffffffffffffffffffffffffff163373ffffffffffffffffffffffffffffffffffffffff1614610371576040517f08c379a000000000000000000000000000000000000000000000000000000000815260040161036890611ac4565b60405180910390fd5b61038c8260040154836007015461160390919063ffffffff16565b4211156103ce576040517f08c379a00000000000000000000000000000000000000000000000000000000081526004016103c590611b30565b60405180910390fd5b60006103e783600701544261161990919063ffffffff16565b9050600061041c846004015461040e670de0b6b3a76400008561162f90919063ffffffff16565b61164590919063ffffffff16565b90506000610451670de0b6b3a764000061044384886005015461162f90919063ffffffff16565b61164590919063ffffffff16565b9050600061046c82876003015461160390919063ffffffff16565b9050803410156104b1576040517f08c379a00000000000000000000000000000000000000000000000000000000081526004016104a890611b9c565b60405180910390fd5b60006104c6823461161990919063ffffffff16565b90506000811115610519573373ffffffffffffffffffffffffffffffffffffffff166108fc829081150290604051600060405180830381858888f19350505050158015610517573d6000803e3d6000fd5b505b8573ffffffffffffffffffffffffffffffffffffffff166342842e0e308960000160009054906101000a900473ffffffffffffffffffffffffffffffffffffffff168a600201546040518463ffffffff1660e01b815260040161057e93929190611bbc565b600060405180830381600087803b15801561059857600080fd5b505af11580156105ac573d6000803e3d6000fd5b5050505060006105da60646105cc6001548661162f90919063ffffffff16565b61164590919063ffffffff16565b90506105f18160035461160390919063ffffffff16565b600381905550600061060c828561161990919063ffffffff16565b90508860060160009054906101000a900473ffffffffffffffffffffffffffffffffffffffff1673ffffffffffffffffffffffffffffffffffffffff166108fc829081150290604051600060405180830381858888f19350505050158015610678573d6000803e3d6000fd5b5060038960080160006101000a81548160ff021916908360038111156106a1576106a06118e8565b5b02179055503373ffffffffffffffffffffffffffffffffffffffff167f096eee4238d7fc8b087bfbce1d8c5019025fcdd6db735aa0c1810ab450ccc81d8b83888b886040516106f4959493929190611bf3565b60405180910390a250505050505050505061070d61165b565b50565b6107186115b4565b600260009054906101000a900473ffffffffffffffffffffffffffffffffffffffff1673ffffffffffffffffffffffffffffffffffffffff163373ffffffffffffffffffffffffffffffffffffffff16146107a8576040517f08c379a000000000000000000000000000000000000000000000000000000000815260040161079f90611c92565b60405180910390fd5b600060035490506000600381905550600260009054906101000a900473ffffffffffffffffffffffffffffffffffffffff1673ffffffffffffffffffffffffffffffffffffffff166108fc829081150290604051600060405180830381858888f1935050505015801561081f573d6000803e3d6000fd5b505061082961165b565b565b60035481565b600260009054906101000a900473ffffffffffffffffffffffffffffffffffffffff1681565b60015481565b6108656115b4565b60006005600083815260200190815260200160002060010160009054906101000a900473ffffffffffffffffffffffffffffffffffffffff16905060006005600084815260200190815260200160002090503373ffffffffffffffffffffffffffffffffffffffff168160000160009054906101000a900473ffffffffffffffffffffffffffffffffffffffff1673ffffffffffffffffffffffffffffffffffffffff1603610949576040517f08c379a000000000000000000000000000000000000000000000000000000000815260040161094090611cfe565b60405180910390fd5b6000600381111561095d5761095c6118e8565b5b8160080160009054906101000a900460ff166003811115610981576109806118e8565b5b146109c1576040517f08c379a00000000000000000000000000000000000000000000000000000000081526004016109b890611d6a565b60405180910390fd5b8060000160009054906101000a900473ffffffffffffffffffffffffffffffffffffffff1673ffffffffffffffffffffffffffffffffffffffff168273ffffffffffffffffffffffffffffffffffffffff16636352211e83600201546040518263ffffffff1660e01b8152600401610a399190611882565b602060405180830381865afa158015610a56573d6000803e3d6000fd5b505050506040513d601f19601f82011682018060405250810190610a7a9190611d9f565b73ffffffffffffffffffffffffffffffffffffffff1614610ad0576040517f08c379a0000000000000000000000000000000000000000000000000000000008152600401610ac790611e3e565b60405180910390fd5b3073ffffffffffffffffffffffffffffffffffffffff168273ffffffffffffffffffffffffffffffffffffffff1663081812fc83600201546040518263ffffffff1660e01b8152600401610b249190611882565b602060405180830381865afa158015610b41573d6000803e3d6000fd5b505050506040513d601f19601f82011682018060405250810190610b659190611d9f565b73ffffffffffffffffffffffffffffffffffffffff1614610bbb576040517f08c379a0000000000000000000000000000000000000000000000000000000008152600401610bb290611ed0565b60405180910390fd5b80600301543414610c01576040517f08c379a0000000000000000000000000000000000000000000000000000000008152600401610bf890611f62565b60405180910390fd5b8173ffffffffffffffffffffffffffffffffffffffff166342842e0e8260000160009054906101000a900473ffffffffffffffffffffffffffffffffffffffff163084600201546040518463ffffffff1660e01b8152600401610c6693929190611bbc565b600060405180830381600087803b158015610c8057600080fd5b505af1158015610c94573d6000803e3d6000fd5b505050508060000160009054906101000a900473ffffffffffffffffffffffffffffffffffffffff1673ffffffffffffffffffffffffffffffffffffffff166108fc349081150290604051600060405180830381858888f19350505050158015610d02573d6000803e3d6000fd5b50338160060160006101000a81548173ffffffffffffffffffffffffffffffffffffffff021916908373ffffffffffffffffffffffffffffffffffffffff16021790555042816007018190555060018160080160006101000a81548160ff02191690836003811115610d7757610d766118e8565b5b02179055503373ffffffffffffffffffffffffffffffffffffffff167f50fba0e5774dc04072ca1af43be0ddad55d12bf75aa2000c50cef1e5b71316dd848360070154604051610dc8929190611f82565b60405180910390a25050610dda61165b565b50565b60045481565b60056020528060005260406000206000915090508060000160009054906101000a900473ffffffffffffffffffffffffffffffffffffffff16908060010160009054906101000a900473ffffffffffffffffffffffffffffffffffffffff16908060020154908060030154908060040154908060050154908060060160009054906101000a900473ffffffffffffffffffffffffffffffffffffffff16908060070154908060080160009054906101000a900460ff16905089565b60006005600083815260200190815260200160002060010160009054906101000a900473ffffffffffffffffffffffffffffffffffffffff169050600060056000848152602001908152602001600020905060016003811115610f0457610f036118e8565b5b8160080160009054906101000a900460ff166003811115610f2857610f276118e8565b5b14610f68576040517f08c379a0000000000000000000000000000000000000000000000000000000008152600401610f5f90611ff7565b60405180910390fd5b8060060160009054906101000a900473ffffffffffffffffffffffffffffffffffffffff1673ffffffffffffffffffffffffffffffffffffffff163373ffffffffffffffffffffffffffffffffffffffff1614610ffa576040517f08c379a0000000000000000000000000000000000000000000000000000000008152600401610ff190612063565b60405180910390fd5b6110158160040154826007015461160390919063ffffffff16565b421015611057576040517f08c379a000000000000000000000000000000000000000000000000000000000815260040161104e906120cf565b60405180910390fd5b8173ffffffffffffffffffffffffffffffffffffffff166342842e0e308360060160009054906101000a900473ffffffffffffffffffffffffffffffffffffffff1684600201546040518463ffffffff1660e01b81526004016110bc93929190611bbc565b600060405180830381600087803b1580156110d657600080fd5b505af11580156110ea573d6000803e3d6000fd5b5050505060028160080160006101000a81548160ff02191690836003811115611116576111156118e8565b5b02179055503373ffffffffffffffffffffffffffffffffffffffff167f98c320799746eb744ecda01e680e73e2aae1a30de8478346d95a4aa075b9d63f846040516111619190611882565b60405180910390a2505050565b60008590503373ffffffffffffffffffffffffffffffffffffffff168173ffffffffffffffffffffffffffffffffffffffff16636352211e876040518263ffffffff1660e01b81526004016111c39190611882565b602060405180830381865afa1580156111e0573d6000803e3d6000fd5b505050506040513d601f19601f820116820180604052508101906112049190611d9f565b73ffffffffffffffffffffffffffffffffffffffff161461125a576040517f08c379a000000000000000000000000000000000000000000000000000000000815260040161125190612161565b60405180910390fd5b3073ffffffffffffffffffffffffffffffffffffffff168173ffffffffffffffffffffffffffffffffffffffff1663081812fc876040518263ffffffff1660e01b81526004016112aa9190611882565b602060405180830381865afa1580156112c7573d6000803e3d6000fd5b505050506040513d601f19601f820116820180604052508101906112eb9190611d9f565b73ffffffffffffffffffffffffffffffffffffffff1614611341576040517f08c379a0000000000000000000000000000000000000000000000000000000008152600401611338906121f3565b60405180910390fd5b60046000815461135090612242565b919050819055506040518061012001604052803373ffffffffffffffffffffffffffffffffffffffff1681526020018773ffffffffffffffffffffffffffffffffffffffff168152602001868152602001858152602001848152602001838152602001600073ffffffffffffffffffffffffffffffffffffffff16815260200160008152602001600060038111156113eb576113ea6118e8565b5b81525060056000600454815260200190815260200160002060008201518160000160006101000a81548173ffffffffffffffffffffffffffffffffffffffff021916908373ffffffffffffffffffffffffffffffffffffffff16021790555060208201518160010160006101000a81548173ffffffffffffffffffffffffffffffffffffffff021916908373ffffffffffffffffffffffffffffffffffffffff16021790555060408201518160020155606082015181600301556080820151816004015560a0820151816005015560c08201518160060160006101000a81548173ffffffffffffffffffffffffffffffffffffffff021916908373ffffffffffffffffffffffffffffffffffffffff16021790555060e082015181600701556101008201518160080160006101000a81548160ff02191690836003811115611536576115356118e8565b5b0217905550905050848673ffffffffffffffffffffffffffffffffffffffff163373ffffffffffffffffffffffffffffffffffffffff167fc2203cd6a09a84b9e792a397d7e2d4e1af274e954acf2ec41eadd16502eef4f36004548888886040516115a4949392919061228a565b60405180910390a4505050505050565b6002600054036115f9576040517f08c379a00000000000000000000000000000000000000000000000000000000081526004016115f09061231b565b60405180910390fd5b6002600081905550565b60008183611611919061233b565b905092915050565b600081836116279190612391565b905092915050565b6000818361163d91906123c5565b905092915050565b60008183611653919061244e565b905092915050565b6001600081905550565b600080fd5b600080fd5b600073ffffffffffffffffffffffffffffffffffffffff82169050919050565b600061169a8261166f565b9050919050565b6116aa8161168f565b81146116b557600080fd5b50565b6000813590506116c7816116a1565b92915050565b6000819050919050565b6116e0816116cd565b81146116eb57600080fd5b50565b6000813590506116fd816116d7565b92915050565b600080fd5b600080fd5b600080fd5b60008083601f84011261172857611727611703565b5b8235905067ffffffffffffffff81111561174557611744611708565b5b6020830191508360018202830111156117615761176061170d565b5b9250929050565b60008060008060006080868803121561178457611783611665565b5b6000611792888289016116b8565b95505060206117a3888289016116b8565b94505060406117b4888289016116ee565b935050606086013567ffffffffffffffff8111156117d5576117d461166a565b5b6117e188828901611712565b92509250509295509295909350565b60007fffffffff0000000000000000000000000000000000000000000000000000000082169050919050565b611825816117f0565b82525050565b6000602082019050611840600083018461181c565b92915050565b60006020828403121561185c5761185b611665565b5b600061186a848285016116ee565b91505092915050565b61187c816116cd565b82525050565b60006020820190506118976000830184611873565b92915050565b60006118a88261166f565b9050919050565b6118b88161189d565b82525050565b60006020820190506118d360008301846118af565b92915050565b6118e28161168f565b82525050565b7f4e487b7100000000000000000000000000000000000000000000000000000000600052602160045260246000fd5b60048110611928576119276118e8565b5b50565b600081905061193982611917565b919050565b60006119498261192b565b9050919050565b6119598161193e565b82525050565b600061012082019050611975600083018c6118d9565b611982602083018b6118d9565b61198f604083018a611873565b61199c6060830189611873565b6119a96080830188611873565b6119b660a0830187611873565b6119c360c08301866118d9565b6119d060e0830185611873565b6119de610100830184611950565b9a9950505050505050505050565b600080600080600060a08688031215611a0857611a07611665565b5b6000611a16888289016116b8565b9550506020611a27888289016116ee565b9450506040611a38888289016116ee565b9350506060611a49888289016116ee565b9250506080611a5a888289016116ee565b9150509295509295909350565b600082825260208201905092915050565b7f43616c6c6572206973206e6f742074686520696e697469616c206f776e657200600082015250565b6000611aae601f83611a67565b9150611ab982611a78565b602082019050919050565b60006020820190508181036000830152611add81611aa1565b9050919050565b7f52657061796d656e742064617465206861732070617373656400000000000000600082015250565b6000611b1a601983611a67565b9150611b2582611ae4565b602082019050919050565b60006020820190508181036000830152611b4981611b0d565b9050919050565b7f496e73756666696369656e742072657061796d656e7420616d6f756e74000000600082015250565b6000611b86601d83611a67565b9150611b9182611b50565b602082019050919050565b60006020820190508181036000830152611bb581611b79565b9050919050565b6000606082019050611bd160008301866118d9565b611bde60208301856118d9565b611beb6040830184611873565b949350505050565b600060a082019050611c086000830188611873565b611c156020830187611873565b611c226040830186611873565b611c2f6060830185611873565b611c3c6080830184611873565b9695505050505050565b7f4f6e6c7920746865206f776e65722063616e2077697468647261772066656573600082015250565b6000611c7c602083611a67565b9150611c8782611c46565b602082019050919050565b60006020820190508181036000830152611cab81611c6f565b9050919050565b7f596f752063616e74206c656e6420746f20796f757273656c6600000000000000600082015250565b6000611ce8601983611a67565b9150611cf382611cb2565b602082019050919050565b60006020820190508181036000830152611d1781611cdb565b9050919050565b7f4c6f616e206973206e6f7420617661696c61626c650000000000000000000000600082015250565b6000611d54601583611a67565b9150611d5f82611d1e565b602082019050919050565b60006020820190508181036000830152611d8381611d47565b9050919050565b600081519050611d99816116a1565b92915050565b600060208284031215611db557611db4611665565b5b6000611dc384828501611d8a565b91505092915050565b7f496e697469616c206f776e6572206e6f206c6f6e676572206f776e732074686560008201527f204e465400000000000000000000000000000000000000000000000000000000602082015250565b6000611e28602483611a67565b9150611e3382611dcc565b604082019050919050565b60006020820190508181036000830152611e5781611e1b565b9050919050565b7f436f6e7472616374206973206e6f7420617070726f76656420746f207472616e60008201527f736665722074686973204e465400000000000000000000000000000000000000602082015250565b6000611eba602d83611a67565b9150611ec582611e5e565b604082019050919050565b60006020820190508181036000830152611ee981611ead565b9050919050565b7f53656e7420616d6f756e74206973206e6f7420657175616c20746f207468652060008201527f7072696e636970616c20616d6f756e7400000000000000000000000000000000602082015250565b6000611f4c603083611a67565b9150611f5782611ef0565b604082019050919050565b60006020820190508181036000830152611f7b81611f3f565b9050919050565b6000604082019050611f976000830185611873565b611fa46020830184611873565b9392505050565b7f4c6f616e206973206e6f74206163746976650000000000000000000000000000600082015250565b6000611fe1601283611a67565b9150611fec82611fab565b602082019050919050565b6000602082019050818103600083015261201081611fd4565b9050919050565b7f43616c6c6572206973206e6f7420746865206c656e6465720000000000000000600082015250565b600061204d601883611a67565b915061205882612017565b602082019050919050565b6000602082019050818103600083015261207c81612040565b9050919050565b7f4c6f616e206475726174696f6e20686173206e6f742070617373656400000000600082015250565b60006120b9601c83611a67565b91506120c482612083565b602082019050919050565b600060208201905081810360008301526120e8816120ac565b9050919050565b7f43616c6c6572206973206e6f7420746865206f776e6572206f6620746865204e60008201527f4654000000000000000000000000000000000000000000000000000000000000602082015250565b600061214b602283611a67565b9150612156826120ef565b604082019050919050565b6000602082019050818103600083015261217a8161213e565b9050919050565b7f436f6e7472616374206973206e6f7420617070726f76656420746f206d616e6160008201527f67652074686973204e4654000000000000000000000000000000000000000000602082015250565b60006121dd602b83611a67565b91506121e882612181565b604082019050919050565b6000602082019050818103600083015261220c816121d0565b9050919050565b7f4e487b7100000000000000000000000000000000000000000000000000000000600052601160045260246000fd5b600061224d826116cd565b91507fffffffffffffffffffffffffffffffffffffffffffffffffffffffffffffffff820361227f5761227e612213565b5b600182019050919050565b600060808201905061229f6000830187611873565b6122ac6020830186611873565b6122b96040830185611873565b6122c66060830184611873565b95945050505050565b7f5265656e7472616e637947756172643a207265656e7472616e742063616c6c00600082015250565b6000612305601f83611a67565b9150612310826122cf565b602082019050919050565b60006020820190508181036000830152612334816122f8565b9050919050565b6000612346826116cd565b9150612351836116cd565b9250827fffffffffffffffffffffffffffffffffffffffffffffffffffffffffffffffff0382111561238657612385612213565b5b828201905092915050565b600061239c826116cd565b91506123a7836116cd565b9250828210156123ba576123b9612213565b5b828203905092915050565b60006123d0826116cd565b91506123db836116cd565b9250817fffffffffffffffffffffffffffffffffffffffffffffffffffffffffffffffff048311821515161561241457612413612213565b5b828202905092915050565b7f4e487b7100000000000000000000000000000000000000000000000000000000600052601260045260246000fd5b6000612459826116cd565b9150612464836116cd565b9250826124745761247361241f565b5b82820490509291505056fea26469706673582212205d1fe8240119de8a9b2e12cdee26639ffd5f487203383b661bf3d670fec1eedd64736f6c634300080d0033",
  "immutableReferences": {},
  "source": "// SPDX-License-Identifier: MIT\npragma solidity >=0.4.22 <0.9.0;\nimport \"@openzeppelin/contracts/interfaces/IERC721.sol\";\nimport \"@openzeppelin/contracts/utils/math/SafeMath.sol\";\nimport \"@openzeppelin/contracts/security/ReentrancyGuard.sol\";\nimport \"@openzeppelin/contracts/token/ERC721/IERC721Receiver.sol\";\n\ncontract NFTVault is ReentrancyGuard, IERC721Receiver {\n  using SafeMath for uint256;\n\n  constructor() {\n    owner = payable(msg.sender);  // Set the contract deployer as the owner\n  }\n\n  uint256 public feePercentage = 1;  // 1% fee\n  address payable public owner;\n  uint256 public totalFeesCollected;\n\n  enum LoanStatus { Available, Active, Defaulted, Repaid }\n  struct Loan {\n    address initialOwner;\n    address nftContractAddress;\n    uint256 tokenId;\n    uint256 principal;\n    uint256 duration;\n    uint256 interest;\n    address lender;\n    uint256 startDate;\n    LoanStatus status;\n  }\n\n  uint256 public loanId = 0;\n  mapping(uint256 => Loan) public loans;\n\n  // Define events\n  event LoanTermsSet(uint256 loanId, address indexed initialOwner, address indexed nftContractAddress, uint256 indexed tokenId, uint256 principal, uint256 duration, uint256 interest);\n  event LoanLended(uint256 loanId, address indexed lender, uint256 startDate);\n  event DefaultCollateral(uint256 loanId, address indexed initialOwner);\n  event LoanRepaid(uint256 loanId, address indexed lender, uint256 repaymentAmount,uint256 proportionalInteresPaid, uint256 timePassed, uint256 refundExcessAmount);\n\n  function setLoanTerms(address nftAddress, uint256 tokenId, uint256 principal, uint256 duration, uint256 interest) public {\n    IERC721 nftContract = IERC721(nftAddress);\n    \n    // Check if the caller is the owner of the NFT\n    require(nftContract.ownerOf(tokenId) == msg.sender, \"Caller is not the owner of the NFT\");\n\n    // Check if the owner has given permission for the contract to manage this specific NFT\n    require(nftContract.getApproved(tokenId) == address(this), \"Contract is not approved to manage this NFT\");\n\n    ++loanId;\n    // Store the loan details with a new loan ID\n    loans[loanId] = Loan(msg.sender, nftAddress, tokenId, principal, duration, interest, address(0), 0, LoanStatus.Available);\n\n    // Emit event\n    emit LoanTermsSet(loanId, msg.sender, nftAddress, tokenId, principal, duration, interest);\n  }\n\n  function lend(uint256 _loanId) public payable nonReentrant {\n    IERC721 nftContract = IERC721(loans[_loanId].nftContractAddress);\n    Loan storage loan = loans[_loanId];\n    \n    require(loan.initialOwner != msg.sender, \"You cant lend to yourself\");\n\n    // Check if the loan is available\n    require(loan.status == LoanStatus.Available, \"Loan is not available\");\n\n    // Check if the initial owner still owns the NFT\n    require(nftContract.ownerOf(loan.tokenId) == loan.initialOwner, \"Initial owner no longer owns the NFT\");\n\n    // Check if the contract is still approved to transfer the NFT\n    require(nftContract.getApproved(loan.tokenId) == address(this), \"Contract is not approved to transfer this NFT\");\n\n    // Check if the amount of ETH sent is equal to the loan principal\n    require(msg.value == loan.principal, \"Sent amount is not equal to the principal amount\");\n\n    // Transfer the NFT from the initial owner to the contract\n    nftContract.safeTransferFrom(loan.initialOwner, address(this), loan.tokenId);\n\n    // Transfer the ETH to the initial owner of the loan\n    payable(loan.initialOwner).transfer(msg.value);\n\n    // Set the lender and start date of the loan\n    loan.lender = msg.sender;\n    loan.startDate = block.timestamp;\n    loan.status = LoanStatus.Active;\n\n    // Emit event\n    emit LoanLended(_loanId, msg.sender, loan.startDate);\n  }\n\n  function defaultCollateral(uint256 _loanId) public {\n    IERC721 nftContract = IERC721(loans[_loanId].nftContractAddress);\n    Loan storage loan = loans[_loanId];\n\n    require(loan.status == LoanStatus.Active, \"Loan is not active\");\n    // Check if the caller is the lender of the loan\n    require(msg.sender == loan.lender, \"Caller is not the lender\");\n\n    // Check if the loan duration has passed\n    require(block.timestamp >= loan.startDate.add(loan.duration), \"Loan duration has not passed\");\n\n    // Transfer the NFT from the contract to the lender\n    nftContract.safeTransferFrom(address(this), loan.lender, loan.tokenId);\n\n    loan.status = LoanStatus.Defaulted;\n\n    // Emit event\n    emit DefaultCollateral(_loanId, msg.sender);\n  }\n\n  function repay(uint256 _loanId) public payable nonReentrant {\n    Loan storage loan = loans[_loanId];\n    IERC721 nftContract = IERC721(loans[_loanId].nftContractAddress);\n\n    // Check if the caller is the initial owner of the NFT\n    require(msg.sender == loan.initialOwner, \"Caller is not the initial owner\");\n\n    // Check if the repayment date is within the loan duration\n    require(block.timestamp <= loan.startDate.add(loan.duration), \"Repayment date has passed\");\n\n    // Calculate the proportion of the loan duration that has passed\n    uint256 timePassed = block.timestamp.sub(loan.startDate);\n    // Multiply by 1e18 to keep precision\n    uint256 durationProportion = timePassed.mul(1e18).div(loan.duration);\n    // Calculate the proportional interest\n    uint256 proportionalInterestPaid = loan.interest.mul(durationProportion).div(1e18);\n    // Calculate the total repayment amount\n    uint256 repaymentAmount = loan.principal.add(proportionalInterestPaid);\n    // Check if value sent is enough to repay the loan\n    require(msg.value >= repaymentAmount, \"Insufficient repayment amount\");\n\n\n    uint256 refundExcessAmount = msg.value.sub(repaymentAmount);\n\n    // If the amount of ETH sent is more than the repayment amount, refund the excess\n    if (refundExcessAmount > 0) {\n      payable(msg.sender).transfer(refundExcessAmount);\n    }\n\n    // Transfer the NFT from the contract back to the initial owner\n    nftContract.safeTransferFrom(address(this), loan.initialOwner, loan.tokenId);\n\n    // Subtract the protocol fee from the repayment amount\n    uint256 fee = repaymentAmount.mul(feePercentage).div(100);  // Calculate the fee\n\n    totalFeesCollected = totalFeesCollected.add(fee);  // Add the fee to the total fees collected\n    uint256 repaymentAmounMinusFee = repaymentAmount.sub(fee);\n\n    // Transfer the ETH to the lender\n    payable(loan.lender).transfer(repaymentAmounMinusFee);\n\n    loan.status = LoanStatus.Repaid;\n    \n    // Emit event\n    emit LoanRepaid(_loanId, msg.sender, repaymentAmounMinusFee, proportionalInterestPaid, timePassed, refundExcessAmount);\n  }\n\n  function withdrawFees() public nonReentrant {\n    require(msg.sender == owner, \"Only the owner can withdraw fees\");\n\n    uint256 fees = totalFeesCollected;\n    totalFeesCollected = 0;  // Reset the collected fees\n\n    owner.transfer(fees);  // Transfer the fees to the owner\n  }\n\n  function onERC721Received(address, address, uint256, bytes calldata) pure external override returns (bytes4) {\n    return this.onERC721Received.selector;\n  }\n}\n",
  "sourcePath": "/Users/victorcollasanta/Desktop/Github/NFTLend/snap-contracts/packages/truffle/contracts/NFTvault.sol",
  "compiler": {
    "name": "solc",
    "version": "0.8.13+commit.abaa5c0e.Emscripten.clang"
  },
  "schemaVersion": "3.4.16",
  "updatedAt": "2024-02-26T22:09:37.488Z",
  "networkType": "ethereum",
  "devdoc": {
    "kind": "dev",
    "methods": {},
    "version": 1
  },
  "userdoc": {
    "kind": "user",
    "methods": {},
    "version": 1
  }
}